:020000040800F2
:100000000080002035630008A93B0008AD3B0008D4
:1000100000000000000000000000000000000000E0
:100020000000000000000000000000000562000861
:10003000000000000000000071620008B5620008C6
:1000400085630008856300088563000885630008F0
:10005000856300088563000885630008B13B0008DC
:100060008563000885630008CD3B000885630008B0
:1000700085630008DD3B0008856300088563000890
:1000800085630008856300088563000885630008B0
:1000900085630008856300088563000885630008A0
:1000A0008563000885630008856300088563000890
:0C00B000ED3B0008FD3B000885630008E4
:1000C00010B5064C2378002B07D1054B002B02D02E
:1000D000044800E000BF0123237010BD240200206B
:1000E000000000000C890008044B10B5002B03D061
:1000F0000349044800E000BF10BDC04600000000F6
:10010000280200200C8900080023C25C0133002A69
:10011000FBD1581E7047000002B4714649084900DF
:10012000095C49008E4402BC7047C0460022430867
:100130008B4274D303098B425FD3030A8B4244D3AF
:10014000030B8B4228D3030C8B420DD3FF220902F1
:1001500012BA030C8B4202D31212090265D0030BB0
:100160008B4219D300E0090AC30B8B4201D3CB03A6
:10017000C01A5241830B8B4201D38B03C01A5241E8
:10018000430B8B4201D34B03C01A5241030B8B42EA
:1001900001D30B03C01A5241C30A8B4201D3CB02D5
:1001A000C01A5241830A8B4201D38B02C01A5241BA
:1001B000430A8B4201D34B02C01A5241030A8B42BD
:1001C00001D30B02C01A5241CDD2C3098B4201D3D5
:1001D000CB01C01A524183098B4201D38B01C01A53
:1001E000524143098B4201D34B01C01A52410309CA
:1001F0008B4201D30B01C01A5241C3088B4201D379
:10020000CB00C01A524183088B4201D38B00C01A25
:10021000524143088B4201D34B00C01A5241411A4C
:1002200000D20146524110467047FFE701B5002059
:1002300000F0F0F802BDC0460029F7D076E770471D
:1002400003460B437FD4002243088B4274D3030937
:100250008B425FD3030A8B4244D3030B8B4228D3D8
:10026000030C8B420DD3FF22090212BA030C8B42FE
:1002700002D31212090265D0030B8B4219D300E09E
:10028000090AC30B8B4201D3CB03C01A5241830B23
:100290008B4201D38B03C01A5241430B8B4201D3D3
:1002A0004B03C01A5241030B8B4201D30B03C01AFC
:1002B0005241C30A8B4201D3CB02C01A5241830A76
:1002C0008B4201D38B02C01A5241430A8B4201D3A5
:1002D0004B02C01A5241030A8B4201D30B02C01ACF
:1002E0005241CDD2C3098B4201D3CB01C01A524136
:1002F00083098B4201D38B01C01A524143098B42BF
:1003000001D34B01C01A524103098B4201D30B01A7
:10031000C01A5241C3088B4201D3CB00C01A5241CC
:1003200083088B4201D38B00C01A524143088B4291
:1003300001D34B00C01A5241411A00D2014652412A
:10034000104670475DE0CA0F00D04942031000D349
:100350004042534000229C4603098B422DD3030A9E
:100360008B4212D3FC22890112BA030A8B420CD3AE
:10037000890192118B4208D3890192118B4204D3D7
:1003800089013AD0921100E08909C3098B4201D357
:10039000CB01C01A524183098B4201D38B01C01A91
:1003A000524143098B4201D34B01C01A5241030908
:1003B0008B4201D30B01C01A5241C3088B4201D3B7
:1003C000CB00C01A524183088B4201D38B00C01A64
:1003D0005241D9D243088B4201D34B00C01A52413B
:1003E000411A00D20146634652415B10104601D3C8
:1003F0004042002B00D54942704763465B1000D352
:10040000404201B5002000F005F802BD0029F8D0F7
:1004100016E770477047C0468446101C62468C46FB
:10042000191C634600E0C0461FB501F0AFF8002874
:1004300001D40021C8421FBD10B501F003F84042AD
:10044000013010BD10B501F0A1F8002801DB00203B
:1004500010BD012010BDC04610B501F097F800286E
:1004600001DD002010BD012010BDC04610B501F017
:1004700029F8002801DC002010BD012010BDC04675
:1004800010B501F01FF8002801DA002010BD01208E
:1004900010BDC0468446081C6146FFE71FB500F04A
:1004A00017F9002801D40021C8421FBD10B500F083
:1004B00099F84042013010BD10B500F009F900284C
:1004C00001DB002010BD012010BDC04610B500F0BA
:1004D000FFF8002801DD002010BD012010BDC0463E
:1004E00010B500F0A7F8002801DC002010BD0120A5
:1004F00010BDC04610B500F09DF8002801DA0020BC
:1005000010BD012010BDC04670B500220C4B040088
:100510000D00FFF7B5FF002804D12000290001F0ED
:10052000B9FE70BD064B00222000290001F01AFB25
:1005300001F0B0FE80231B069C466044F1E7C046F4
:100540000000E04170B505000C00002200232800E7
:100550002100FFF777FF002804D12800210000F0D8
:100560000DF870BD80231B06E118280000F006F886
:1005700002000B00002150429941F2E770B50022C1
:100580000B4B0D00040001F065F8FFF7BDFF0600FE
:1005900001F0F2FE0022074B01F05CF802000B00B4
:1005A0002000290001F0DEFAFFF7AEFF310070BD38
:1005B0000000F03D0000F04170B50600080001F0B9
:1005C0009FFE0022064B01F045F80D0004003000AC
:1005D00001F0D2FE2B00220000F0C8F870BDC0462A
:1005E0000000F04170B542004E024C0045026D0A19
:1005F000120EC30F760A240EC90FFF2A0FD0FF2C4C
:1006000011D00120A24200D070BDB542FCD18B4276
:100610000DD0002AF8D12800451EA841F4E701209A
:10062000002DF1D1EBE70120002EEDD1E9E700200C
:10063000EAE7C04670B54A004E02450244006D0A22
:10064000240EC30F760A120EC90FFF2C15D0FF2AF5
:100650000ED0002C15D1002A01D1002E1CD0002D67
:1006600014D08B4227D00220013B1840013870BDC6
:10067000002EEED002204042F9E7002DFAD1FF2AE9
:100680000ED0002A0ED1002EEDD00BE0012301394F
:10069000994308000130EAE70020002DE7D0E2E7A7
:1006A000002EE7D18B42DED1944205DD0221581E97
:1006B00008400138DBE70024A24204DCB542D2D86E
:1006C0000020B542D3D2581E012398430130CEE713
:1006D00030B5420044024D02C30F4800640A120EB6
:1006E0006D0A000EC90FFF2A17D0FF2808D0002A74
:1006F00017D1002808D1002D06D1002C23D007E007
:10070000002DF4D002201EE0002C17D08B421FD009
:100710000220013B1840013815E0002CF2D1FF28DF
:1007200012D0002801D1002DF2D08B42F0D18242AC
:100730000FDD0221581E0840013804E00123013971
:1007400099430800013030BD002DEED00220FAE7B9
:100750000022904204DCAC42DAD80020AC42F2D253
:10076000581E012398430130EDE7C046F8B54746CF
:10077000CE460E034D00760ACC0F410F3143894619
:10078000190380B5490A570F5E000F436D0DC00075
:10079000760DDB0FB846D2009C4200D1A3E0AF1B20
:1007A000002F00DC83E0002E00D1C0E0B94B9D4259
:1007B00000D14FE1802341461B0419438846382F5E
:1007C00000DD2DE11F2F00DDE7E12023110046466B
:1007D000DB1B9E40F9409A400E434146531E9A410E
:1007E000F9404B465B1A99463243871AB84280411A
:1007F0004B464142591A0B0200D4D6E049024E0A38
:10080000002E00D1FFE0300001F0C2FE0300083BE3
:1008100020223900D21A9E40D1409F400E439D4273
:1008200000DDE9E05D1B6B1C1F2B00DDA6E1202134
:10083000C91A3D0030008F408840DD40791E8F414D
:1008400031002843D940002507437B0709D00F23F7
:100850003B40042B05D03B1DBB42BF417F42C91921
:100860001F000B0200D477E26A1C8A4B55056D0D00
:100870009A4200D1A2E0884AFF080A405007384354
:1008800084465202120B00211203130B0A0D1205AB
:100890001A43824B2D0513402B435B00E4075B0892
:1008A0002343604619000CBC90469946F8BD002FC2
:1008B0004BD17B4E691C314200D0B7E046464946D9
:1008C00016430143B446002D00D0EEE1002900D1CB
:1008D000AFE1002E00D0F0E14B46C0085F070743B0
:1008E000BC46D908D1E0AB1B002B6CDD002E3ED0FE
:1008F00068498D4200D1B9E180213E0009040E43D0
:10090000B046382B00DD1DE11F2B00DC62E1190031
:1009100046462039CE40202B04D04021CB1A4146F8
:1009200099400A4317007A1E974137430FE1434627
:10093000134300D19FE07B1E002B00D18CE1554971
:100940008F4200D186E01F0039E7771B002D00D0D1
:10095000D0E04946014300D158E1791E002900D179
:1009600000E24C4CA74200D149E20F00CBE0390035
:10097000114300D181E1591E002900D139E1454ED2
:10098000B34200D172E10B00BBE7424B9E4200D163
:1009900019E2821882428041494635004144404272
:1009A0000918CF075208174349087B0700D04EE7C4
:1009B0004807FF080743BC46C90863E01500002349
:1009C00000229C465FE7002B6CD1354B6E1C1E420B
:1009D000DBD14B460343002D00D020E1002B00D19A
:1009E000CBE13B00134300D0CEE14B46C0085F078C
:1009F00038438446D90848E02749ED1A31407B073F
:100A000000D024E7D4E7380001F0C2FD030018331A
:100A10001F2B00DCFCE63E00083886400027FEE67F
:100A2000434613431A00571EBA41DEE6494646467E
:100A3000871A8E1BB84289414942761A310200D585
:100A400029E13B0033439C4600D0D9E60021002435
:100A500000251AE04B46C0085F070743BC46D9088B
:100A600063460B4300D1EFE1802212030A431203D5
:100A7000120B084D07E74B46C0085A07024394463D
:100A80003D00D908034B9D42EAD00A036D05120BC5
:100A90006D0DF8E6FF070000FFFF7FFFFFFF0F80EF
:100AA000FE070000731B002D00D185E0D8498E425F
:100AB00000D179E180214D4609040D43A946382B28
:100AC00000DD0EE11F2B00DDA6E12021C91A050083
:100AD0004F4688408F40411E88414946DD40D940FD
:100AE0002F4307438844BF189742924151424144E3
:100AF000350031E0C6498E4200D1A5E080214C4648
:100B000009040C43A146382F00DDBEE01F2F00DD95
:100B1000EDE020210500C91B4C4688408C40FD407B
:100B2000411E884149462C432043F9404446611AFE
:100B30008846171ABA42924141465242891A1C000D
:100B4000350058E6434613431F007A1E97413F186D
:100B500087428041414249440B0200D425E7AC4B17
:100B600001359D4200D12AE7AA4A7B080A400121AB
:100B70000F401F43D3071F43510866E630001F3D57
:100B8000E840202B03D04021CB1A9E4037437B1EE8
:100B90009F4100210743002507E73B004646203BD5
:100BA000DE40202F04D040234146DB1B99400A43FE
:100BB000571EBA41324318E64946014300D1FAE0D4
:100BC000591E002900D137E1914DAB4200D1EBE035
:100BD0000B0074E72021C91A160047468A408F404F
:100BE000511E8A414146DE40D9403743174389446C
:100BF000ADE78718494687429B4141445B42C9188B
:100C000001250B0200D4D0E60225ADE74146D2080B
:100C1000480710438446C9081C003D0032E7002BFA
:100C200000D0D5E03B00D2087F071743BC46D90867
:100C300016E7002E00D18CE04146D2084F073A4318
:100C40009446C9081C0020E74146D2084F071743C5
:100C5000BC46C9081C0003E7871A4B464246B84207
:100C60008041991A4042091A0125C4E54B46C00843
:100C70005F0738438446D908F2E64A46C00857075A
:100C800038438446D1081D00FCE64946014308006C
:100C9000471EB8414DE7171A41464846BA42B64189
:100CA000091A76428E1B1C00AAE500292ED1002EBF
:100CB000CAD1802100240903D6E649464646871A50
:100CC0008E1BB84289414942711A0E023CD5171A4F
:100CD00041464846BA429241091A5242891A1C00BA
:100CE000B3E54B4603431F00781E8741FBE63900FE
:100CF0004C462039CC40202F04D040214D46C91B02
:100D00008D402843411E8841204312E74946C008D0
:100D10004D072843C908002E44D080252D032942C1
:100D200008D04646F7082F4204D11C003900D208EB
:100D300070071043CA00430F1A43C0005707C0088A
:100D40000743BC46D1088BE63B000B439C4600D0D2
:100D50002BE60021002498E64B07FF081F43BC4602
:100D6000C9088FE6171A41464846BA429241091A05
:100D70005242891A1C0001253DE53B00D2087F073D
:100D80001743BC46D90880E68718494687429B41ED
:100D900041445B42C9180B0200D406E61D4B0125F5
:100DA000194002E684465BE64346D2085F073A43B1
:100DB0009446D90854E63900D2087F071743BC4649
:100DC000C9081D005EE60023350000229C465AE556
:100DD0004B465F07D9084346C00813433843002BEE
:100DE000E0D080231B031942A4D04546ED081D42E4
:100DF000A0D14346D2085807104329009AE741463C
:100E0000D2084F073A439446C9081C0028E6C0465A
:100E1000FF070000FFFF7FFF19004D462039CD403E
:100E2000202B04D04021CB1A4946994008430700A3
:100E3000781E87412F4356E68718494697429B41C3
:100E400041445B42C918DBE60023024D9C461A0070
:100E500019E5C046FF070000F0B557464E46454627
:100E6000DE46E0B50F0381461E0004003B0B480040
:100E700085B092469846400DCD0F002800D1B6E0CF
:100E80008B4B984200D1D2E04346670FDB001F43F3
:100E900080231B041F43874B00979B4600239846E3
:100EA000E4008344019333031B0B994673005246BD
:100EB0005B0DF60F002B00D178E07D498B421AD0F4
:100EC000510F4A467B48D20011438446802258463F
:100ED00012046344C31A114352469B460020D200B9
:100EE0002B0073409A4643460F2B00D9F4E0724F13
:100EF0009B00FB589F464B46514619436F4B9C46FF
:100F0000E344002900D0B5E0424602231A4390464C
:100F100002200022E4E73500140000910190019BBB
:100F2000022B00D112E2032B00D175E2012B1DD060
:100F3000AA46634E5E44002E00DCE0E1630700D069
:100F400015E2E408009AD30105D580265D4BF60032
:100F50001A4000925E445C4B9E4223DC009A760568
:100F6000530757021C433F0B730D03E0AA460023AF
:100F70000027002400213F033E0B0F0D3F053743A0
:100F80001E05524B20001F4053463E437600DB07B0
:100F900076081E43310005B03CBC90469946A246F7
:100FA000AB46F0BD424B00270024E3E7494611431E
:100FB00059D04B46002B00D190E1484601F0E8FAA9
:100FC00002000B3A08235B429C4684446346494630
:100FD00099401D239B1A5246DA40634611435246FC
:100FE0009A403B4B58449B468344002078E71F00BF
:100FF000274300972FD04346002B00D15EE14046A7
:1010000001F0C6FA02000B3A1D2301009B1A474665
:101010004A464C4608398F40DA408C4017430097C7
:101020002C4B1B1A9B460023984601933BE74F46E7
:1010300043461F43009706D108239846063B0024E9
:10104000834601932FE7434600930C239846093BC0
:101050008346019327E70423984600239B460133E8
:10106000002401931FE7424601231A4390460120C2
:10107000002235E7414603231943884603204946A9
:101080002EE7002380279A463F030024084B71E790
:10109000802300981B03184200D1EAE0194200D0D7
:1010A000E7E00B431F033F0BB2461400004B61E720
:1010B000FF07000001FCFFFFD489000801F8FFFFD3
:1010C000FF030000FFFFFFFEFE070000FFFF0F8091
:1010D000F30300000DFCFFFF009B994200D2E6E005
:1010E00000D1E1E001235B429C46250000260098E8
:1010F000E344130E09020B439946130298464B46EC
:101100001C0C1B041B0C21000193FFF795F8019A9E
:101110000B044243290C070019438A4207D949446A
:10112000013F894503D88A4201D9871E4944881A5C
:101130002100FFF781F809048C4629046546019ACD
:10114000090C4243030029438A4204D94944013B24
:10115000894500D805E13F041F43891A43463A00F8
:10116000380C00971F0C130442461204150C2A0079
:101170001B0C5A4302977B43039545437843170C56
:10118000BC465B1963449D4203D980256D02AC4681
:1011900060441D0C281815041B042D0C5D19814298
:1011A00072D36FD0751B091AAE428041A14E4042E6
:1011B000081A5E44814500D100E12100FFF73CF8A8
:1011C0000200019B07005A430B04290C19438A4271
:1011D00008D94944013F894504D88A4202D9831E6F
:1011E0001F004944881A2100FFF726F8019A0C04D1
:1011F00042432904090C030021438A4207D9494488
:10120000013B894503D88A4201D9831E4944039D85
:101210003C041C432B00891A2204120C5343029FE6
:10122000200C45437A4378431F0CBC465219624454
:10123000954203D980256D02AC466044150C1B0411
:1012400012041B0C2818D218814206D302D00123A5
:101250001C4370E6002A00D16DE64944631E4945EF
:1012600000D296E0814200D2ADE000D1DDE01C006A
:10127000EDE78026009F360337433F033F0BAA4626
:101280006D4B77E6AE428DD2009B46445A1E4645D2
:101290009B415B424B44C91889455CD2884200D9C6
:1012A00082E07ED000927DE7A24200D91AE7009B3F
:1012B0006508DF0758083D43E6071AE7484601F08E
:1012C00067F903001A00153220301C2A00DC9BE667
:1012D0004F46083B9F4000240097A1E6504601F08E
:1012E00057F903001A00153220301C2A00DC69E689
:1012F0005146083B9940002273E6012464420121D3
:10130000891B382900DD32E61F2966DC009D22009A
:101310002B004A48CA405844834084401343621E0D
:101320009441CD4023432F005A0709D00F221A4081
:10133000042A05D01A1D9A429B415B42FF181300F4
:101340003A0262D501230027002413E6AA463A4B4D
:10135000002700240EE68945A4D1B0459ED900920D
:1013600020E78A4200D8F6E6831E4944F3E60F23BD
:101370002340042B00D1E4E505235B42A3429B41BB
:1013800004345B42E408009A94469C44634600930C
:10139000D8E51C00814200D059E7424500D056E70D
:1013A000C9E5B54200D87DE7009B4644023B009367
:1013B00046459B415B424B44C918F3E6002E9CDD39
:1013C00000240123DFE743465D0045459B415B4226
:1013D0004B44023CC918A846DCE71F225242961B28
:1013E000009A1300F340202903D015485844824046
:1013F0001443621E94412343072400271C4007D056
:101400000F2200271A40042A94D17C077F023F0B49
:10141000DB081C430023ADE58023009F1B031F4313
:101420003F033F0BAA46044BA4E59045CBD31C00D9
:10143000B3E7C046FF030000FF0700001E040000E2
:101440003E040000F0B54E464546DE4657461C03B6
:10145000E0B5240B1A4E0F034D00A1465C00DB0FD4
:1014600084463F0B6D0DC90F9046640D9B46B542F7
:101470001AD0B44210D00126A5420ED14F450CD14E
:101480000126C44509D1594518D0002D05D138434E
:101490000600701E864100E0012630003CBC9046EC
:1014A0009946A246AB46F0BD3B0001260343F4D16A
:1014B000AC42F2D14B461343EFD1E1E70026ECE713
:1014C000FF070000F0B54F464646D6464D00C0B572
:1014D0000E03C90F8A462C491F035C008046360B59
:1014E0006D0D91463F0B640DDB0F8D421ED08C427B
:1014F00016D0002D1ED130438446002C01D13A4332
:1015000023D06246002A1AD09A4529D0514602209B
:101510000139084001381CBC90469946A246F0BDEE
:1015200039001143E5D002204042F4E73043FAD1BC
:10153000AC420FD0002C0FD13A43E7D00CE001228F
:10154000013B934318000130E5E763460020002B80
:10155000E1D0DBE73A43E6D19A45D7D1A542D5DCC5
:10156000A54205DBBE42D1D808D00020BE42D2D26F
:1015700050460123013898430130CCE7C845C5D80F
:101580000020C845C7D2F3E7FF070000F0B54F467B
:101590004646D6464D00C0B50E03C90F8A462C49B3
:1015A0001F035C008046360B6D0D91463F0B640DAA
:1015B000DB0F8D421ED08C420CD0002D1ED130434B
:1015C0008446002C0BD13A4309D163460020002BFE
:1015D0002FD009E039001143EFD0022029E0624604
:1015E000002A21D09A4511D05146022001390840E5
:1015F00001381EE03043F0D1AC421FD0002C01D1A5
:101600003A43F1D09A45EFD1A542EDDCA54205DB86
:10161000BE42E9D816D00020BE420AD2504601236D
:1016200001389843013004E00122013B9343180044
:1016300001301CBC90469946A246F0BD3A43E1D029
:101640000220F6E7C845CFD80020C845F1D2E5E72B
:10165000FF070000F0B557464E464546DE46E0B56A
:101660000C0381461F000500230B480087B09246FB
:101670009846400DCE0F002800D17CE07D4B98426B
:1016800000D196E043466C0FDB001C4380237A4A6E
:101690001B041C43944603006344019300239846B3
:1016A0009B46ED003B031B0B99467A00FB0F51460E
:1016B000520D029300D187E06E4B9A4222D06E48C1
:1016C0004B0F8446019862448446494694446246DE
:1016D000C9000B4380210192002209040B435146AB
:1016E0009446C900320002984240019801300390AC
:1016F00040460F2800D9C7E08000804647465F4833
:10170000C05987464A4653465A4813438446019A6D
:1017100062440192002B00D08CE00222414611432A
:10172000884694460021DDE7029A1C000D00E3463E
:101730005B46022B6BD0032B00D1FFE1012B00D0C5
:1017400065E100260024002500212403230B0C0D55
:1017500024051C434A4B3605234033435B00D20724
:101760005B0813432800190007B03CBC904699461B
:10177000A246AB46F0BD1C002C4353D04346002B81
:1017800000D181E1404600F003FF02000B3A1D2327
:1017900001009B1A44464A464D4608398C40DA40BF
:1017A0008D401443374B1B1A0193002398469B46E8
:1017B00078E74C4643461C432DD108239846063B08
:1017C000002501909B466DE74B4601220B43A5D0B7
:1017D0004B46002B00D147E1484600F0D9FE0200FD
:1017E0000B3A1D27BA1A57460100D740524608390E
:1017F0004B468A408B4011003B43019A214F101AFF
:10180000BC46020062440192002294466AE7194EE7
:101810000024002598E70C2344469846093B019094
:101820009B463FE70423984600230193013300259C
:101830009B4637E7032342461A43904603224B4612
:1018400094464FE7320073E78024002224030025EA
:10185000084E79E780221203144200D1FCE01342C3
:1018600000D0F9E01A431403240B029A0D00014E34
:101870006AE7C046FF07000001FCFFFF148A00086A
:10188000FFFF0F800DFCFFFF2F0C2D042D0C2800F7
:101890000E0C0904090C4843804608007843814631
:1018A0003000784302902800704384464046000C84
:1018B0008246CC44D444E14507D902988246802030
:1018C00040028146CA44504602906046000C83465E
:1018D00060460004844640460004000C8046604692
:1018E00040440490180C804628001B041B0C5843ED
:1018F00084461800784381464046784382464046F5
:10190000454360464D44070C7D19A94503D9802005
:1019100040028146CA4460462F0CBA4407043F0C7B
:101920002D04ED19AB445846270C2404240C0590D3
:10193000200048437943894639008446000C834699
:10194000714366434E445E44B14503D98020400252
:1019500081464944300C814660460004000C8446B0
:101960002000584349448146404678433604664443
:1019700084464046444348467B43070CE4183C19E0
:10198000A34203D980235B029846C4440598029B76
:10199000804648460004000C43448146AB42AD41BA
:1019A0009B19B342B64127044F446D4257447819FE
:1019B000804676428B46B146C344D9445745BF4121
:1019C000A845AD418B458941B145B6416D427F4245
:1019D0002F43240C4942764231433C19641849464E
:1019E0006444C90D64020C4304995D020D43691EF1
:1019F0008D41DB0D1D434B465B021D43E3017AD550
:101A000001216B080D401D43E3071D4364084F4B44
:101A10000399CE18002E46DD6B0709D00F2129400F
:101A2000042905D02B1DAB42AD416D4264191D0048
:101A3000E30105D5464B03991C408023DB00CE18FB
:101A400044498E4200DDE2E66307ED086402760554
:101A50001D43240B760D77E680231B031C432403D0
:101A60003200240B3C4E6FE6504600F091FD03001F
:101A70001A00153220301C2A00DCB2E65246083B20
:101A80009A4000211300B8E6484600F081FD0300AB
:101A90001A00153220301C2A00DC78E64C46083B40
:101AA0009C4000257EE60121891B382900DD48E69F
:101AB0001F2923DC294B2E009C46039BCE40634408
:101AC0001800230085408340681E854133432B4323
:101AD000CC40590709D00F211940042905D0191D00
:101AE00099429B415B42E4180B0021021FD501265D
:101AF0000024002528E6019B039388E71F235B420F
:101B00009E1B2300F340202905D015498C460399DC
:101B100061448C402543691E8D412B4307250024D9
:101B20001D4007D00F21002419400429D7D1650793
:101B30006402240BDB081D43002605E680231B03FB
:101B40001C432403240B044EFEE5C046FF030000A3
:101B5000FFFFFFFEFE070000FF0700001E0400005D
:101B60003E040000F0B5574645464E46DE46E0B519
:101B70000F037F0A450F3D43AC465D004E00CC0F7E
:101B8000690D8A461F03CC49550F83B0C0007F0AF8
:101B9000D200760D8046DB0F2F4301928A4500D19B
:101BA000C0E05546751BA9460125AB465D466B4016
:101BB0009B469C4200D190E04D46002D00DCBBE0EE
:101BC0005346002B00D1D5E08E4200D1B5E18023F1
:101BD0001B041F434B46382B00DD8BE11F2B00DD20
:101BE00036E2494620233D005B1A11009A409D4091
:101BF000531E9A414B46A8464D46DF406346E94096
:101C00004546DB1B9C460D431543451BA8428041BE
:101C100063464142591A0B0200D40DE149024B0AB6
:101C200098464346002B00D157E1404600F0B0FCF7
:101C30000300083B202229004746D21A9F40D1408A
:101C40009D400F439E4200DD40E19E1B731C1F2BF5
:101C500000DDD2E120222800D21A390095409140BF
:101C6000D8406A1E954101430D4339000026D940F2
:101C70006B0709D00F232B40042B05D02B1DAB4243
:101C8000AD416D4249191D000B0200D4D7E0721C12
:101C9000894B5605760D9A4200D1DFE0874FED085B
:101CA0000F407807284382467A02120B0021120364
:101CB000130B0A0D12051A43814B360513403343AB
:101CC0005B00E4075B0823435046190003B03CBCAB
:101CD00090469946A246AB46F0BD4D46002D5CDDD0
:101CE0005346002B00D18BE08E4200D116E28023B8
:101CF0001B041F434B46382B00DD8EE11F2B00DCFD
:101D0000C0E13900203BD9404B46202B05D0402371
:101D10004D465B1B9F403A430192019D6F1EBD41A2
:101D20000D437EE167493D0089461543B144002DCE
:101D30002ED09B469C4230D0494600294AD1624D64
:101D4000711C294200D0E1E03D006146154301438A
:101D5000AA46002E00D0EFE1002900D1C5E1002DF8
:101D600000D000E26346C0085B0718436346824622
:101D7000D9086DE03B00134300D1C0E04B46013B66
:101D8000002B00D1C1E1894500D1D6E0994621E779
:101D900001256B409B469C42CED14946002900D08C
:101DA000D2E0711C8A46554647490D4235D16146FD
:101DB0000143002E00D08AE1002900D10CE23B0053
:101DC000134300D00EE26346C0085A07024392460E
:101DD000D9083DE05146891B89465C46002E00D05B
:101DE000E4E06346034300D16BE10B00013B002BB1
:101DF00000D1E8E1304DA94200D1DEE19946DEE0B4
:101E00003B0013437BD04B46013B002B00D14CE100
:101E1000894500D182E199466CE7274B9A4500D16C
:101E2000EDE1821882428941564667444942791859
:101E3000CD075208154349086B0700D01AE74B0736
:101E4000ED081D43AA46B146C9081B4B994527D04A
:101E50004B460A035E05120B760D27E7160000239A
:101E600000229A4622E76346C0085E073043D9083D
:101E70008246002D14D080252D03294207D0FE086C
:101E80002E4204D15C463100D20878071043CA00C4
:101E9000410F1143C0004A07C00810438246C908D9
:101EA00053460B4300D1EEE1802212030A43120392
:101EB000120B014EFAE6C046FF070000FFFF7FFF4E
:101EC000FFFF0F8001F8FFFFFE070000D149F61A5F
:101ED00039406B0700D0CDE6B1E7280000F058FB91
:101EE000030018331F2B00DCA4E6083885402F00C0
:101EF0000025A7E63A4315006A1E954185E663462C
:101F0000C0085A0702439246D9089EE76146851ADF
:101F1000CB1BA84289414942884619004346C91A49
:101F20000B0088461B0200D513E10B002B439A4699
:101F300000D076E6002100248AE76346C0085A07ED
:101F400002439246D908ABE753469B1B9946002EA5
:101F500000D08EE06346034300D1B2E04B46013B24
:101F6000002B00D170E1AC4DA94500D125E1994687
:101F70004B46382B00DD08E11F2B00DD4EE14946C2
:101F800020234E465B1A6546010098409D40F14073
:101F9000431E98410D4305436046F0403F18AD187D
:101FA000954289414942C91956463FE09A4B9A45A4
:101FB00000D1A4E0802361461B0419438C464B46A4
:101FC000382B00DDB2E01F2B00DDE4E04946202382
:101FD0004E465B1A6546010098409D40F140431E05
:101FE00098410D4305436046F0403F1A551BAA42F5
:101FF00089414942791A56460DE63A001F3EF240A1
:102000001600202B03D04022D31A9F403D436B1E65
:102010009D410021354300260EE73A4315006A1E14
:1020200095412D1885428041414261440B0200D404
:1020300002E7794B01369E4200D110E70122754F2D
:102040006B08394015401D43CB071D4349080FE677
:102050003900203BD9404B46202B05D040234D462C
:102060005B1B9F403A430192019D6F1EBD410D4392
:10207000CBE5694B9A4542D0802361461B04194346
:102080008C4675E7494620233D005B1A9D401100B0
:102090009A40A8464D46531E9A414B46E940454654
:1020A000DF400D431543BC44BBE785188542894199
:1020B00067444942791801260B0200D4BCE6022687
:1020C000BCE7D2087B071A439246F908BDE600290F
:1020D00015D063463D005E07D9081543C008002DA2
:1020E00000D0B8E030438246DAE6002D00D121E787
:1020F0007907D2080A439246F9085C46A8E67807B1
:10210000D20810438246F908CAE6851A6346A842F7
:102110008041DF1B4042391A01267CE56346C00836
:102120005B07184363468246D908B9E66346034312
:102130001D00681E854159E7002900D093E6002D57
:1021400000D17DE07907D2080A439246F9085C463F
:10215000A6E6151A6346AA429241FF1A5242BB1ADA
:1021600098465C465DE56346851AD91BA8429B41AB
:102170005B42C91A0B0247D5151A6346AA4292411F
:10218000FF1A5242B91A5C4672E5634603431D00CA
:10219000681E854103E76646203BDE404B46202B08
:1021A00006D0494640235B1A614699400843804661
:1021B0004546691E8D41354318E7D2087B071A430F
:1021C0009246F9086CE6151A6346AA429241FF1A34
:1021D0005242B91A01261EE57807D20810438246FA
:1021E000F90835E6851885428941674449427918DE
:1021F0000B0200D420E6074B012619401CE6002301
:10220000564600229A4651E52B000B439A4600D1D0
:1022100090E611E6FFFF7FFFFF0700006646203BC8
:10222000DE404B46202B06D0494640235B1A6146D0
:102230009940084380464546691E8D413543AEE6C8
:102240008021002409032FE68518954292416744B6
:10225000514279182FE7064380200003014208D03D
:10226000FD08054205D1D2087F073A4316005C46B7
:102270002900CA00710F1143F6004A07F6083243DD
:102280009246C9080CE60023014E9A461A000DE555
:10229000FF07000030B5144D0A034B00120B5B0D15
:1022A000C90F0024AB4204DD104CA34203DD104BE8
:1022B000CC18200030BD8024640322430D4CE41A66
:1022C0001F2C08DD0C48C31ADA4013005C420029B9
:1022D000EFD11C00EDE7094DE040AC4663449A4065
:1022E00013000343F2E7C046FE0300001D04000094
:1022F000FFFFFF7F3304000013040000EDFBFFFF2E
:1023000070B5002818D0C317C5185D40C40F280049
:1023100000F03EF9164B1B1A5B055E0D0A2820DC07
:1023200003002A0015339A4013000B22101A2A00CA
:10233000C2401203120B03E00024002600220023F7
:10234000002112031800130B0A0D0A4D12051A433F
:102350002A40330513435B00E4075B08234319005D
:1023600070BD2A000B3882401203120B0023E7E7EE
:102370001E040000FFFF0F8010B5041E12D000F0F5
:1023800007F9144B1B1A5B055B0D0A281BDC0200C6
:102390002100153291400A000B21081AC440240381
:1023A000240B02E00023002400220021100024035B
:1023B0000A0D240B12052243074C1B052240134330
:1023C0005B00590810BD0B3884402403240B002205
:1023D000EBE7C0461E040000FFFF0F8070B5410010
:1023E0004602C40FFE20090E4B1C750A184214D079
:1023F000E0239B006D07360BCB1800210A0D280047
:1024000012051C4D32435B052A405B0813435B00F9
:10241000E4075B082343190070BD002914D1002D87
:102420001ED0280000F0B4F80A281CDC0B232A0078
:102430001B1ADA40030015339D400F4B12031B1A81
:102440005B05160B5B0DD8E7002D06D0320B8026FE
:1024500036036D071643094BCFE7084B0026CCE740
:1024600000230026C9E703002A000B3B9A40002501
:10247000E3E7C046FFFF0F8089030000FF0700006D
:102480004A00F0B50B03520D3D4D5B0A470F561C39
:10249000C90F1F43C4002E4228D03A4BD518FE2D39
:1024A00008DDFF2200204002D205400AC907104380
:1024B0000843F0BD002D2DDD80010200501E824139
:1024C000FB00640F134323435A0757D00F221A40CF
:1024D000042A00D004338022D2041A404ED00135A1
:1024E000EAB2FF2DDDD09B01580ADCE73C43002A0D
:1024F00006D1002C0BD005239B01580AD2B2D2E79B
:10250000002CCED08020C0033843FF22CBE700222E
:102510000020C8E72B00173322DB80231E261B0474
:102520003B43761B1F2E1DDD02204042451B180039
:10253000E8400500202E04D01348844662449340AE
:102540001C4323005C1EA3412B4300255A07BDD129
:102550008020C00418400122A842C4D10200CBE769
:102560000022C8E709481018220084402500834053
:102570006C1EA541F2402B431343E6E72A00BBE75C
:10258000FE07000080FCFFFFA2FCFFFF82FCFFFFB4
:102590001C2101231B04984201D3000C10391B0A93
:1025A000984201D3000A08391B09984201D3000957
:1025B000043902A2105C40187047C04604030202AE
:1025C00001010101000000000000000010B5012021
:1025D00003F0C2FBFBE7C04610B5FA20800003F011
:1025E000BBFB90202021C00502F09AFEF5E7C04613
:1025F00010B57D2003F0B0FB80210248490102F0B4
:102600008FFEF6E70004004810B5FA2003F0A4FBA3
:10261000802190200901C00502F082FEF5E7C04646
:1026200010B5FA20400003F097FB8021902049016B
:10263000C00502F075FEF4E70222F0B51E4BFFB0B4
:1026400006201A7000F03CFB26221C491C4801F0B1
:102650001DFD1C4D26221C49280001F017FD0520F8
:1026600003F09CFC062000F03FFB012217492800E4
:1026700001F03AFDFA22C2265200002101A803F01F
:10268000C0FE134F134CB60001F0CAF900280ED15A
:10269000C1239B00A070E053A053E05201A801F0B9
:1026A000E7F9982201A95200280001F0EFFC01206F
:1026B00003F074FCE8E7C046B8240020548A000800
:1026C0002C1F0020A01F00207C8A0008F020002082
:1026D00062030000F820002010B5012003F03CFB4D
:1026E000FBE7C04600B599B0302200210CA803F0EA
:1026F00088FE10220021684603F083FE1C22002180
:1027000004A803F07EFE20230BA80B931F3B13931A
:1027100002F06CF8002800D0FEE7072203230092A5
:10272000019300220023012168460292039302F0E4
:1027300031FB002800D0FEE70223079004A8049391
:1027400002F01AFC002801D119B000BDFEE7C04616
:10275000F0B5C64600B5AAB024AD02F0C1FCFFF743
:10276000C1FF14220021280003F04BFE8021874C7A
:102770000903626990200A4362616369C0050B40E6
:1027800080210293029B6269C9030A436261636903
:1027900000260B4080210393039B626989020A4350
:1027A0006261636900270B4080210493049B626986
:1027B000C9020A436261636900220B40C12105938B
:1027C0004901059B02F0A6FDC02100224901704885
:1027D00002F0A0FD6F4A704B29002492259300233C
:1027E0006E489846AB6002F099FCC122902001230C
:1027F00052012900C005249225932696279702F0BE
:102800008DFCC022012352012900614824922593A6
:102810002696279702F082FC0123626903211A435E
:10282000626162690A20134001930022019B02F059
:1028300045FE0A2002F06EFE59485A4B9626036068
:102840000C244346B60146608360C3600361446163
:102850008361C3610362436201F07AFE002811D1F3
:10286000514B524A9860D86018619861D8611862DB
:10287000586218001A605E605C6101F069FE002811
:1028800001D0FEE7FEE74A4B4A4A9860D8601861DB
:102890009861D8611862586218005E601A605C61C5
:1028A00001F056FE061E00D0FEE7032102000720BD
:1028B00002F004FE072002F02DFE3F4C06AB220082
:1028C0009C4683CA83C303CA03C33100604603F036
:1028D00043FB3A4B18600BAB9C4623006246143313
:1028E00083CB83C203CB03C23100604603F034FBC9
:1028F000334B186010AB9C4623006246283383CBD1
:1029000083C203CB03C23100604603F025FB2D4B8D
:10291000186015AB9C46230062463C3383CB83C2D0
:1029200003CB03C23100604603F016FB264B186050
:102930001AAB9C4623006246503383CB83C203CB41
:1029400003C23100604603F007FB204B18601FAB49
:102950009C4623006246643383CB83C203CB03C20D
:102960003100604603F0F8FA194B783418602B00F8
:1029700007CC07C3280006CC06C3310003F0ECFAED
:10298000144B186003F0E2FAFEE7C0460010024064
:10299000000400482020000000001110000800483A
:1029A000A01F0020004C00402C1F002000140140FC
:1029B000742000200044004028890008C41E002024
:1029C0009C1F0020EC200020E8200020C01E0020DA
:1029D000B81E0020E4200020044B026810B59A4283
:1029E00000D010BD02F08CFBFBE7C046002C01407C
:1029F000FEE7C046EF2370B5694C9B00E2580368C0
:102A000012680500934204D0664C2268934237D086
:102A100070BDC1229200A35A63498B4227D86348F4
:102A20000378DBB2012B64D0002B1AD0022B38D0F4
:102A3000032B1CD1A35A8B4219D8A35A6278E318EE
:102A4000D2B21A7162786378DBB20D2A00D17DE0D0
:102A50000A2B00D17AE0C1229200A35A01339BB223
:102A6000A35201225249280001F03EFBD0E7022088
:102A700000F0E6F801224E49280001F035FBC7E7D7
:102A800080214C48090102F04BFC4B4D01222900EA
:102A9000200001F0FBFA01222900200001F024FBB4
:102AA000B6E76378002B6ED06378242BD9D1A37856
:102AB0002C2BDCD8A35A6178E318C9B21971A3781A
:102AC000A15AB133FF335B0089B2E318598000216A
:102AD000A3788533FF335B00E152A35A0821013309
:102AE0009BB2A3520323354A037013780B43137030
:102AF000B7E7FF23A15A5B00994221D8A35A617816
:102B0000E318C9B21971217863789942A3D1237867
:102B1000002BA0D0A3782B2B3BD8A378A25AB1339B
:102B2000FF335B0092B2E3185A800022A37885330A
:102B3000FF335B00E252A3780133DBB2A3708AE774
:102B400010211E4A13780B4313708AE7C122A37821
:102B50009200A25A8533FF3392B25B00E252022305
:102B600002210370154B1A780A4308211A701A784B
:102B70008A431A70A3780133DBB2A370104B186834
:102B800002F076FE67E7611C0122280001F0ACFA32
:102B90003EE72021094A13780B4313705BE7C046D8
:102BA000F8200020A01F0020FF010000B824002012
:102BB000F920002000040048F0200020F42000202C
:102BC000E4200020037810B5042B0FD0062B04D08E
:102BD0000024022B08D0200010BD054C012205491D
:102BE000200001F081FAF6E7034CF7E7034CF5E724
:102BF0002C1F0020F920002074200020A01F00209E
:102C0000EF2370B5054C9B00E558002D05D0E35827
:102C10000A000100180001F039FA70BDF820002008
:102C200000B583B06B46D87107331800FFF7CAFFB1
:102C3000EF23024A9B00D05003B000BDF8200020D3
:102C40001A4BC12210B518700023194992008B70DD
:102C50008B520022CA70174A00208B5200221300A8
:102C6000B133FF335B00CB18588013008533FF333B
:102C70005B000132C8522D2AF1D1802400230020AC
:102C8000A400CA1801331071A342FAD101210A4BE2
:102C90001A780A4302211A701A788A431A701A782D
:102CA00006318A431A70054B187010BDB8240020F5
:102CB000F820002006030000F42000200825002052
:102CC00000B583B06B46D87107331800FFF77AFF61
:102CD000EF23024A9B00D05003B000BDF820002033
:102CE00010B5FFF78DFF10BD0122F8B500241700C5
:102CF000294B2A495C600D795E68AF40BD19170009
:102D00005D600D7C5E68AF40BD195D60097F5D68E8
:102D10008A4052195A604122214B50211A705A7030
:102D2000204A52251A62204A5A62204A1A63204ACF
:102D30005A6300221A645A645C5401315C540021C5
:102D40005C530A3559550135595501355C530A3DD7
:102D5000595501355955013559550A359C6559550F
:102D600001355955013559555C6619715971632101
:102D700099705E39D9700F4919615A619A61DA61A7
:102D80009A64DA649A63DA639A62DA629C60DC605D
:102D9000FFF746FFF8BDC046BC24002020000020FD
:102DA000482500200000B4420000B4C200003443B3
:102DB000000034C30000A040F8B557464E464546D3
:102DC000DE464F4BE0B51D684E4B012499464E4BF5
:102DD00001279A4668239846631E4C4ED346DBB2C1
:102DE0002F421CD0092B1AD84A469B00D3589F4625
:102DF000454B9A78F3789A426CD3434B9A78B378E0
:102E00009A4267D843460222F35C93434246B35446
:102E10006D080134E4B2631EDBB22F42E2D16D08CB
:102E2000212CF6D16823F05C40B23CBC9046994618
:102E3000A246AB46F8BD534618697169FDF75AFBC7
:102E4000002840D0534618693169FDF73FFB002840
:102E500039D043460422F35C93434246B354D7E748
:102E60005B46DA68736E9A423BD35B46DA68B36DB1
:102E70009A4236D843464246F35CBB43B354C7E755
:102E800043462022F35C93434246B354C0E71E4BB3
:102E90005A78737852B25BB29A4229DB1A4B5A784D
:102EA000337852B25BB29A4222DC43460822F35C8A
:102EB00093434246B354ABE743461022F35C93433B
:102EC0004246B354A4E743460422F35C134342460C
:102ED000B3549DE743460222F35C13434246B35486
:102EE00096E743460122F35C13434246B3548FE70F
:102EF00043460822F35C13434246B35488E7C04676
:102F000044000020FC8A0008C82400204825002036
:102F1000F8B5DE464E4657464546E0B50600414CFC
:102F2000292723181879731CE3181979C0B2C9B27C
:102F300000F032FE28233C4DE854B31CE318187906
:102F4000F31CE3181979C0B2C9B200F025FE331D95
:102F50000536E318E855A41918792179C0B2C9B229
:102F600000F01AFEFA23DB009C46604480B26885BC
:102F7000E85D6B8D02389BB2C0B29946002848D0FC
:102F800043001B18DB001B1A1B01181A0C21FDF74C
:102F900057F983462823E85C6421C3B29A462C2360
:102FA000E85CC3B298462D23EF5C0133EE5C4B46E0
:102FB00048469C08FDF7BAF8C82180B2241A490097
:102FC0004846FDF7B3F84B46DB004B4480B2DB00CC
:102FD0004B44201858449A0050449B18C018430092
:102FE0001818C000030043441801C01A8000FFB243
:102FF000C7193B01DF1B0D4BF6B29C46BF00664470
:10300000BE19AE6000203CBC90469946A246AB4635
:10301000F8BD1800013883B299467023FF339B46F0
:10302000B8E7C046F8200020C824002080BFB18641
:10303000F0B5DE464E46454657460400E0B583B03F
:1030400006220021684603F0DCF9714D2B1918792E
:10305000631CEB181979C0B2C9B200F09DFD2C2396
:103060006C4EF054A31CEB181879E31CEB1819797B
:10307000C0B2C9B200F090FD2D23F054231DEB180F
:103080001879631DEB181979C0B2C9B200F084FD3C
:103090002E23F054200000211E3006E01B792C2B3B
:1030A0004BD00134A4B2844208DC2B191A792E2AA1
:1030B000F4D121000134A4B28442F6DD564B5B1AF0
:1030C0001BB2002B3FDD1C1C032B2CDC23B29846CB
:1030D0004B1CEA1810792F2827D9107900270022D5
:1030E000392809D921E053180133E81804792F2C25
:1030F0001BD90079392818D86846EB181B7901329A
:1031000092B2C35517004245EDDB03F047F9434641
:103110003063022B00D175E0032B6ED06423326B39
:103120005343336315E00324D0E7012003B03CBCD4
:1031300090469946A246AB46F0BD013CA3B25B1A4D
:103140001BB2002BBFDC684603F028F90023306374
:1031500033632923F05C738D02389BB2C0B2994669
:10316000002843D043001B18DB001B1A1B01181A50
:103170000C21FDF765F883462823F35C6421DBB25C
:103180009A462C23F35C4846DBB298462D23F75C25
:103190000133F55C4B469C08FCF7C8FFC82180B2A0
:1031A000241A49004846FCF7C1FF4A46D2004A4467
:1031B00083B2D2004A44E3185B449100521853444E
:1031C0009B185A00D318DB0043441A001B019B1ABA
:1031D0009B00FFB2DF193B01DF1B104BEDB29C4699
:1031E000BF0065447D19B56000209FE7013B9BB29D
:1031F00099467023FF339B46BEE7684603F0CEF83E
:103200003063A6E7326B93009B185B003363A0E743
:10321000F8200020C8240020FFFF000080BFB186F6
:10322000F8B5274D04002B181B792F2B05D9013435
:10323000A4B22B191B792F2BF9D82B191B792E2B04
:1032400008D00022352101201E4B5A5401315A5416
:103250001A87F8BD231FEB181879E31EEB181979AC
:10326000C0B2C9B200F098FC3523164FF854A31E23
:10327000EB181879631EEB181979C0B2C9B200F0C7
:103280008BFC3623F854631CEB181879A31CEB183D
:103290001979C0B2C9B200F07FFCE31C0434EB180A
:1032A0002C19060018792179C0B2C9B200F074FC5B
:1032B00064235E433618B6B23E870020C9E7C04695
:1032C000F8200020C8240020F8B5274D04002B1852
:1032D0001B792F2B05D90134A4B22B191B792F2B65
:1032E000F9D82B191B792E2B08D000223B21012065
:1032F0001E4B5A5401315A54DA87F8BD231FEB187C
:103300001879E31EEB181979C0B2C9B200F044FC79
:103310003B23164FF854A31EEB181879631EEB18C5
:103320001979C0B2C9B200F037FC3C23F854631CD1
:10333000EB181879A31CEB181979C0B2C9B200F0C8
:103340002BFCE31C0434EB182C19060018792179A6
:10335000C0B2C9B200F020FC64235E433618B6B296
:10336000FE870020C9E7C046F8200020C8240020BE
:1033700070B549014018C0B284B01400472800D984
:1033800051E1C04B80001B589F466D4600210F2223
:10339000280003F036F8210026000E31BA4B06E073
:1033A0006434A4B20134A4B2A14200DA46E11A198D
:1033B0001279D2B22E2A03D0F2D9303A092AEFD8A4
:1033C0001A191079A21BA854ECE73A21AE4B9C18AD
:1033D0002379AE4ADBB253542379572B00D178E1DD
:1033E0002379452B00D01EE10221137900208B4365
:1033F000137122E06D4600210F22280003F001F82E
:10340000210026000E31A04B06E06434A4B2013442
:10341000A4B28C4200DD43E11A191279D2B22E2AED
:1034200003D0F2D9303A092AEFD81A191079A21B21
:10343000A854ECE71000FFF76BFD04B070BD6D46BB
:1034400000210F22280002F0DCFF210026000E31AF
:103450008D4B06E06434A4B20134A4B2A14200DA78
:1034600027E11A191279D2B22E2A03D0F2D9303AB2
:10347000092AEFD81A191079A21BA854ECE76D4657
:1034800000210F22280002F0BCFF210026000E318F
:103490007D4B06E06434A4B20134A4B28C4200DD5A
:1034A000E6E01A191279D2B22E2A03D0F2D9303AB4
:1034B000092AEFD81A191079A21BA854ECE76D4617
:1034C0000F220021280002F09CFF200026000E3071
:1034D0006D4B06E06434A4B20134A4B2A04200DA19
:1034E000D6E019190A79D2B22C2AF3D0F2D3303AA5
:1034F000092AEFD80979A21BA954EDE76D460F22DE
:103500000021280002F07DFF200026000E305E4BD7
:1035100006E06434A4B20134A4B2A04200DA96E01A
:1035200019190A79D2B22C2AF3D0F2D3303A092AE7
:10353000EFD80979A21BA954EDE76D4600210F22AF
:10354000280002F05EFF210026000E314E4B06E0FF
:103550006434A4B20134A4B2A14200DA7FE01A19A3
:103560001279D2B22E2A03D0F2D9303A092AEFD8F2
:103570001A191079A21BA854ECE7434B9A18117939
:10358000412900D19EE01179562900D19AE01179A4
:10359000612900D196E01279762A00D192E00022CA
:1035A0003A4B01205A7048E71000FFF739FE44E714
:1035B0003421354B9C182379344ADBB25354237998
:1035C000532B00D18BE023794E2B2CD1042113797E
:1035D00000208B43137130E71000FFF775FE2CE7D6
:1035E0006D4600210F22280002F00BFF210026006B
:1035F0000E31254B05E06434A4B20134A4B28C42F0
:1036000013DC1A191279D2B22E2A03D0F3D9303A28
:10361000092AF0D81A191079A21BA854EDE7100056
:10362000FFF706FD09E7012007E7280002F0ABFEDF
:10363000FEF726FF154B58620020FEE6280002F038
:10364000A2FEFEF71DFF114B58610020F5E6280091
:1036500002F09EFE0D4BC0B298700020EDE62800EF
:1036600002F091FEFEF70CFF084B18610020E4E623
:10367000280002F088FEFEF703FF044BD86100200B
:10368000DBE6C046248B0008F8200020C824002078
:10369000280002F07DFE154BC0B2D8700020CCE6A9
:1036A000280002F070FEFEF7EBFE104B18620020BF
:1036B000C3E6280002F067FEFEF7E2FE0B4B9861BE
:1036C0000020BAE61C192379084A5BB25370002027
:1036D000B3E60221137900200B431371ADE60421F8
:1036E000137900200B431371A7E6C046C8240020BD
:1036F000F0B5DE4657464E464546E0B5BC4B89B070
:103700009B461B789B0700D42DE11B2300930023CD
:103710009946B84BB84F9A46984606E00023524661
:1037200013705B461B789B0741D5FB78B133FF33A1
:103730005B00FB185D88FB78ADB28533FF335B001F
:10374000FC5AA4B2A542E9D26B1CE01E00269842A6
:1037500006DDFA181279013356409842F9DCB6B208
:10376000A31EFB181B7906AA1370631EFB181B7996
:103770000021537006A8102203F044FD80B2864257
:103780002BD09E4B0134A4B2FC52FB780133DBB248
:10379000FB70FA78BB789A4218D25B4602221B78FB
:1037A00013435A4613705B461B789B07BDD4C12355
:1037B0009B00FA5A914BFB5A9A425CD2002009B006
:1037C0003CBC90469946A246AB46F0BD5B46022201
:1037D0001B7893435A461370A3E70322002107A8DE
:1037E00002F00FFE2B00FA1812792C2A47D0013371
:1037F0009BB29C42F7D200230393049302930023CD
:1038000042467F4907A8137002F024FE00284AD0E0
:103810007C4E07A8310002F01DFE002800D0D6E043
:10382000794907A802F016FE00230193002855D11C
:10383000310007A8183102F00DFE022200284ED1F7
:1038400043461B78002B54D1704B049A1900080092
:103850005A72039B8B7202994B40C17200996C485B
:1038600059404A406B49009202F0D4FD1D2167483F
:10387000FFF736FA85E70220FFF7E2F99EE75A1EC6
:10388000BA18127906A9D2B202928A719A1E033B23
:10389000BA18FB1812791B79D2B2DBB203924A71C3
:1038A00004930B71ABE75C4907A802F0D3FD554EBA
:1038B00007AB01903100180002F0CCFD019B059090
:1038C000002B52D0002800D085E0310007A80C3131
:1038D00002F0C0FD012301930028A9D0012253006A
:1038E0009B189B00F3189B6842469946012313706E
:1038F000A6E76B461B7901265BB202933B002700CB
:103900004C46994602E0ABB29F421FD94B465B1929
:103910001B790135AAB22C2BF5D12B3B23421DD1AB
:10392000002C0DD1019B012B3BD0029A002A31D0F3
:10393000022B05D1434604229B6813434246936001
:103940000136ABB26408F6B29F42DFD84B4642461E
:10395000A1463C001F000023137012E701993000BC
:10396000FFF706FDECE7244F21E72C4907A802F0FA
:1039700071FD00281CD0059B002B30D1310007A819
:103980000C3102F067FD02230193002800D14FE7BC
:103990000122A4E7434601229B68134342469360F9
:1039A000CEE7434602229B68134342469360C7E733
:1039B000059B002B17D1310007A80C3102F04AFDFE
:1039C000FF230193002800D132E7012287E700237B
:1039D0000022019383E70123002201937FE7022362
:1039E000002201937BE7FF230022019377E7C04683
:1039F000F4200020BC240020F82000200603000052
:103A0000448C0008200000202C0000200000002032
:103A100019000020508C0008488C00084C8C0008CD
:103A20000F4B70B51B789B0702D40124200070BD9A
:103A3000FFF75EFE0B4DAA686B689A42F5D1FFF75F
:103A4000BBF9C4B2002C07D1074E40220749300011
:103A500002F0CEFC012333700023AB60E6E7C046E2
:103A6000F4200020BC24002008250020C8240020C9
:103A7000F0B5DE4657464E464546E0B5444BB1B03C
:103A80002B905A78362452B220929A78D1B2219152
:103A9000DA78D0B222901A799E68D5B2DF681969B7
:103AA0005A69239527922822249626919969DD69DF
:103AB0001E6A29952A9625972891586A9F5C01329B
:103AC0002C979A5C35262D922C22598D34272E91D5
:103AD0002E219D5C01322F959A5C595C1D6B9E5D79
:103AE000DF5D1C5DA4461C8FA0463B241C5DA146E7
:103AF0003A241C5DA2463C241C5DDB8F1D94544679
:103B00001C944C461B9444461A9464461E932D9B69
:103B1000169515912F9D2E9911932C9B149210930D
:103B200018971796139519941291FEF757FC0E905B
:103B30000F912A98FEF752FC0C900D912998FEF7F0
:103B40004DFC0A900B912898FEF748FC08900991CB
:103B50002798FEF743FC069007912698FEF73EFC57
:103B6000259F04900591249E2298239D0090039701
:103B700002960195219B209A06492B9802F04AFC57
:103B800031B03CBC90469946A246AB46F0BDC0461B
:103B900008250020588C00088300C0181039400008
:103BA0004018C0B27047C0467047C046FEE7C046E6
:103BB00010B5202001F0BAFB8020800101F0B6FB97
:103BC00090202021C00501F0ABFB10BD10B50248CC
:103BD00001F026FC10BDC046741E002010B502483E
:103BE00000F0A4F910BDC046B425002010B502486D
:103BF00000F022FD10BDC0467420002010B503481F
:103C000000F01AFD024800F017FD10BDA01F0020B3
:103C10002C1F002001220D4B00B599690220114391
:103C20009961996983B00A4080210092009ADA690B
:103C300049050A43DA61DB6900220B400193032145
:103C40004042019B01F03AFC03B000BD001002406D
:103C500030B504008DB01422002107A802F0D1FB7A
:103C60002368504A934208D04F4A93422CD04F4A7F
:103C7000934200D16EE00DB030BD80224C4B9202D9
:103C8000D96990201143D961D969C00511400191CA
:103C900001995969114359615B6907A91A40029258
:103CA000029B0C2307930A3B089301330A93023BC0
:103CB0000B9301F033FA002203211C2001F0FEFBDC
:103CC0001C2001F027FCD6E78020394B0003D9697E
:103CD0000143D9618021DA69890202400392039A83
:103CE0005A6990200A435A615B6902220B4004938F
:103CF000049B0323C00507930A9307A90133089285
:103D00000B9301F00BFA2B4D2B4B80222B601023D1
:103D10006B6000232800AB60EA602B616B61AB61D4
:103D2000EB6101F00FFB002839D1A823F020234AD2
:103D3000D1588143D150D15840380143D1509338A4
:103D40002566002203216C6201F0B8FB1D2001F002
:103D5000E1FB90E72022164B1948996911439961BC
:103D600099690A4080210592059A5A6909030A4314
:103D70005A615B6903220B400693069B022307A945
:103D8000079208930A920B9301F0C8F900220321CD
:103D90001D2001F093FB1D2001F0BCFB6BE7FEF73B
:103DA00027FEC2E700440040004C004000140140E0
:103DB00000100240741E00201C000240000002405F
:103DC0000008004810B5010086B000220D2001F067
:103DD00075FB0D2001F09EFB8020144A00019169C3
:103DE00001439161936969460340019302A8019BD5
:103DF00001F0A6F801F094F80D4C0E4B0E4923602B
:103E00000E4BE360FCF792F900230138606020005C
:103E10002361A36000F016F803000120002B01D0FD
:103E200006B010BD200000F06FF8F9E70010024066
:103E3000B4250020002C014040420F00E7030000A1
:103E40007047C04670B5041E4DD03D23C35CDBB245
:103E5000002B2DD03D2302222449E2542368A66979
:103E60001A68E56860688B4227D08021C9058B42BB
:103E700015D01F498B4212D01E498B4213D01E49C8
:103E80008B421ED01D498B421BD01D498B4218D03E
:103E900080218A4332431A60DD6298621DE07021FE
:103EA0008A43A1680A4317490A4021690A43EFE798
:103EB0003C228354FFF7C4FFCCE770218A43A168FA
:103EC0000A4310490A4021690A4380218A43324348
:103ED0001A60DD62986262691A6301225A613D23A9
:103EE0000020E25470BD0120FCE7C046002C0140D8
:103EF0000004004000200040004001400044014018
:103F000000480140FFFCFFFF03680120D96801431E
:103F1000D9601A6802431A60002070477047C04693
:103F20007047C0467047C0467047C04602220368CB
:103F300010B5196904000A4202D0D9680A4265D155
:103F4000042219690A4202D0D9680A424BD10822D8
:103F500019690A4202D0D9680A4233D1102219697C
:103F60000A4202D0D9680A421CD1012219690A42C8
:103F700002D0D9680A425CD1802219690A4202D073
:103F8000D9680A425CD1402219690A4202D0D96834
:103F90000A425DD1202219690A4202D0D9680A4238
:103FA00041D110BD213A1A6119322277DA69C02352
:103FB0009B0020001A425ED0FFF7B2FF0023237758
:103FC0002368D2E7113A1A61DB690D3222772000AB
:103FD0009B074DD1FFF7A2FF2000FFF7A3FF0023AF
:103FE00023772368BAE7093A1A61073222779A6978
:103FF000C0239B0020001A4237D1FFF78FFF20001B
:10400000FFF790FF002323772368A0E7053A1A61A2
:104010009B69043202779B0721D0FFF781FF0023C1
:10402000237723688CE7413A1A61200000F02AF8D0
:10403000B7E7033A1A612000FEF7CEFC23689BE73E
:10404000023AFF3A1A61200000F01EF823689AE74E
:10405000813A1A612000FFF767FF23689AE7FFF7AC
:104060005DFF2000FFF75EFFD9E7FFF759FFC9E7C3
:10407000FFF756FFB3E7FFF751FF2000FFF752FFAE
:104080009CE7C0467047C0467047C046692310B5DC
:10409000C35C202B25D1002921D0002A1FD08023EA
:1040A00084685B019C4215D06823C45C012C18D045
:1040B000C164502142520231425221240022173160
:1040C000C2664454C25402680020136817310B437F
:1040D000136010BD0369002BE6D1CB07E4D50120A6
:1040E000F7E70220F5E7C0466A2330B5C35C202B12
:1040F00039D1002931D0002A2FD08024836864016F
:10410000A34225D06824055D012D2CD0012505553D
:1041100041655821425202314252002B25D1036998
:10412000002B36D05C237F22C25200236A22222138
:10413000C3668154023A8354036821399A68002087
:104140000A439A609022196852000A431A6005E0F7
:104150000369002B03D1CB071FD5012030BD682395
:10416000C35C012B0CD10220F8E780225205934258
:10417000DBD10369002BD5D05C233F22C252D4E7A8
:1041800058234165C2520233C252FF220233C25247
:10419000CBE7FF225C33C252C7E76823C35C012B25
:1041A000E1D058234165C2520233C252014A023360
:1041B000C252BAE7FF0100007047C0467047C046D0
:1041C00000235A2210B5406A8352083A8352FFF7FF
:1041D000F5FF10BD70B505000468C169836800690A
:1041E000226803436869034365480B430240134355
:1041F00023606368634A286A1340EA681343636074
:10420000AB69A2680343604802401343A3605F4B5D
:104210009C424BD05E4B9C4219D05E4B9C4200D1DD
:1042200074E05D4B9C4236D05C4B9C4233D05C4B7F
:104230009C4230D05B4B9C422DD05B4B9C422AD0A1
:1042400080231B02994200D175E0012020E0C022AA
:104250008020564B92021B6B40021340834200D1D8
:104260006DE016D98020800283425DD09342E7D171
:1042700080231B02994200D177E04D4B69689C4630
:1042800048086044FBF752FF0004000CE060002087
:1042900070BD002BD4D180231B0299426DD000F059
:1042A0003FFE69682C684B081818EBE73F4B1A6B08
:1042B000032313403F4AD35C8022120291420DD067
:1042C000022BDAD055D9042B3DD0082BBDD1802349
:1042D0001B029C46696848086044D3E7022B44D01F
:1042E00027D9042B36D0082B25D1802369685B029F
:1042F00048089C466044FBF719FF0F2203075B0F39
:10430000904303439BB20020E360C1E7C0228020BA
:10431000264B12031B6BC002134083420FD0B8D947
:10432000802000038342A1D180231B029942CED179
:10433000DBE7002B21D000230120E360A8E78023E6
:104340001B02994206D000F0DFFC69682C684B081C
:10435000181897E700F0D8FC6B6840005B08C0189D
:104360006968FBF7E3FE2C68C7E76968124B4808E9
:10437000BFE7002B93D001208AE700F0D1FDEBE7E7
:10438000F369FFEFFFCFFFFFFFF4FFFF00380140AD
:104390000044004000480040004C004000500040F5
:1043A0000014014000180140001C014000100240B0
:1043B00000127A00908D00080024F400436A30B5A2
:1043C000DA0706D50168284C4A682240846A2243ED
:1043D0004A609A0706D50168244C4A682240C46A9C
:1043E00022434A605A0706D50168214C4A68224098
:1043F000046B22434A601A0706D501681D4C4A68BF
:104400002240446B22434A60DA0606D501681A4C02
:104410008A682240846B22438A609A0606D5016826
:10442000164C8A682240C46B22438A605A060AD519
:104430000168134D4A68046C2A4022434A60802276
:104440005203944209D01B0606D502680D495368F1
:104450000B40816C0B43536030BD4A680A4C2240CC
:10446000446C22434A60EEE7FFFFFDFFFFFFFEFFC3
:10447000FFFFFBFFFF7FFFFFFFEFFFFFFFDFFFFF00
:10448000FFFFEFFFFFFFF7FFFFFF9FFFF8B50023E0
:104490000400C36600F03CFE2368284A05009342EE
:1044A0000FD0274A93420CD0264A934209D02023AA
:1044B0006922A3540132A354002200204833E2545D
:1044C000F8BD1A68120712D41A685207EFD5802671
:1044D000DB69F6033342EAD11B4F00F019FE236873
:1044E000401BB84216D8DB693342F6D0DFE780269E
:1044F000DA69B6033242E7D1134F00F009FE2368B0
:10450000401BB84206D8DA693242F6D01A68520720
:10451000CDD5DCE71A680D4903200A401A609A6875
:10452000A331FF318A439A6020236922A3540132C8
:10453000A35400224833E254C2E7C0460038014089
:104540000044004000480040FFFFFF015FFEFFFF06
:1045500010B5041E29D06923C35CDBB2002B26D022
:10456000692324220121E2542268200013688B432E
:104570001360FFF72FFE012817D0636A002B10D1BC
:1045800023680D495A6820000A402A215A609A6817
:104590008A439A601A6829390A431A60FFF776FF3E
:1045A00010BD2000FFF70AFFEAE70120F8E76822C4
:1045B0008354FFF74DFBD3E7FFB7FFFF6A2370B5C6
:1045C000C25C0368222A2FD180249B8C85683A32F2
:1045D000825A9BB2416D6401A5420DD04C1C134020
:1045E00044650B705A22835A0024013B9BB28352CC
:1045F000002B09D0200070BD0469002CEED11340BF
:104600000B8002314165EDE703680A491A680A40E8
:104610001A609A682331FF318A439A606A23202204
:10462000C254FEF7E7F9E5E708219A6902240A4334
:104630009A61DFE7DFFEFFFF0268F8B5D369040087
:10464000106819071DD12021194214D195688021C5
:1046500049030B4202D06D0200D574E0802119425B
:1046600002D0014200D078E04021194202D001423C
:1046700000D087E0F8BD0142E8D02000FFF79EFFA0
:10468000F8E7012690213700956849002F40014046
:104690003943DCD01E4205D0C10503D51662E16E58
:1046A0000E43E6660221194242D0002F06D00425AF
:1046B0001162E16E2943E1661D423DD108251D428C
:1046C00007D0202101400F4303D01562E16E0D4356
:1046D000E566E16E0029CDD02021194201D00142CA
:1046E0005FD1E36E1B0703D4402593681D4053D070
:1046F00013683B490B40136093682331FF318B43B0
:1047000093606A231F31E15493682031194235D0F8
:104710009368606E8B43936000282FD0314B4363C6
:1047200000F05AFE0028A5D0606E436B9847A1E7C1
:104730005907C3D5002FC1D0042102251162E16EB3
:104740002943E166BAE7116220236922A3540132AA
:10475000A354200000F048F88CE76923E35C212B88
:1047600000D087E73133E35A002B1FD113688B4306
:104770001360136840390B4313607BE72000FFF799
:104780001DFD77E7136820008B4313606923202207
:10479000E254FFF711FD6DE72000FFF70FFDE5661E
:1047A00068E72000FFF70AFF22689AE78021A068E7
:1047B000E36C4901884209D0591CE1641B781385D8
:1047C0005222A35A013B9BB2A35253E7216900290D
:1047D000F2D119880233C905C90D1185E364EFE7E9
:1047E000DFFEFFFFC14100087047C046F0B5CE466E
:1047F000474680B5036883B00400DA072FD50C2143
:10480000C44842680A40042A00D121E142681140AC
:10481000082900D113E16368012B00D152E1002B7C
:1048200000D168E1052B00D157E2BA4BBA491A68AA
:104830000A401A601A68B9490A401A6000F068FC18
:1048400080250700B34EAD0205E000F061FCC01BFF
:10485000642800D94DE133682B42F6D023689A07CB
:1048600029D50C22AB494868024200D104E14868CE
:104870000240082A00D1F6E0E368002B00D17AE17B
:104880000122A44F02253B6813433B6000F040FC2B
:10489000060005E000F03CFC801B022800D928E15E
:1048A0003B681D42F6D0F8213A6823698A43DB0051
:1048B00013433B6023681A0717D5E369954D002B16
:1048C00000D1ECE001226B6A022613436B6200F018
:1048D0001FFC070005E000F01BFCC01B022800D9EC
:1048E00007E16B6A1E42F6D023685A0748D580223A
:1048F0000020884B5205D9698046114208D1D969F8
:104900001143D961DB691A400192019B012398464A
:104910008026834F76003B68334200D1D9E0A368FC
:10492000012B0FD0002B00D10CE1052B00D174E13D
:104930000121784B1A6A8A431A621A6A03318A4340
:104940001A6203E073490A6A13430B6200F0E0FB4A
:10495000704F81460226734D06E000F0D9FB4B46AE
:10496000C01AA84200D9C4E03B6A1E42F5D04246B4
:104970002368012A04D167496B48CA690240CA61A9
:10498000DA0612D56269012A00D150E1053200D061
:1049900005E10420F8255F494A6B82434A63486B6E
:1049A000A269A843D20002434A639B0622D50C2287
:1049B00058494B6813400C2B00D10FE14B681A404B
:1049C000082A00D103E1236A524D002B00D110E1E7
:1049D00080266B6B760233436B6300F099FB070014
:1049E00005E000F095FBC01B022800D981E06B6B4D
:1049F0003342F6D0636A002B1BD00C22454D696808
:104A00000A40082A2DD0022B00D12FE12B68474AFB
:104A10002C0013402B6000F07BFB80250600AD04CA
:104A200004E000F075FB801B022862D823682B424B
:104A3000F7D1002003B00CBC90469946F0BDC021D0
:104A4000426849020A40802149028A4200D0E2E6D7
:104A5000304A1268920300D401E76268002A00D04D
:104A6000FDE60120E6E74A68C02149020A408021AC
:104A700009028A4200D0FFE6264A1268920702D550
:104A8000E268012AEDD1F825224822690168D200A6
:104A9000A9430A4302601A0700D426E70DE7012262
:104AA0006B6A022693436B6200F032FB070004E05E
:104AB00000F02EFBC01B02281BD86B6A1E42F7D1E8
:104AC000236812E78023134A5B0211680B431360CB
:104AD000B4E63B6833433B6000F01AFB050004E09A
:104AE00000F016FB401B642803D83B683342F7D024
:104AF00015E703209EE7074D074A2B6880261340E1
:104B00002B602B68054AB60213402B6000F000FBB7
:104B1000070012E000100240FFFFFEFFFFFFFBFF57
:104B20000070004088130000FFFFFFEFFFFFFFFE53
:104B300000F0EEFAC01B6428DBD82B683342F7D1B3
:104B400023688CE601226B4E0227336A6A4D934339
:104B50003362336A03329343336200F0D9FA8146F9
:104B600005E000F0D5FA4B46C01AA842C1D8336A16
:104B70001F42F6D1FBE601225E4D02262B689343CD
:104B80002B6000F0C5FA070004E000F0C1FAC01B7A
:104B90000228AED82B681E42F7D123688BE6042288
:104BA000544D02266B6B13436B636B6B033A934359
:104BB0006B6300F0ADFA070004E000F0A9FAC01B37
:104BC000022896D86B6B1E42F7D12368EDE6C0220F
:104BD0004B6852021340934200D0F4E6454B5B6BA6
:104BE000DB0300D406E7236A012B00D102E7012092
:104BF00020E76B6B414A802613406B6300F088FA14
:104C00007602070005E000F083FAC01B022800D9F5
:104C10006FE76B6B3342F6D1ECE60421354B1A6A31
:104C20000A431A621A6A03390A431A628EE6042199
:104C3000304D02266B6B0B436B636B6B1A436A63DD
:104C400000F066FA070005E000F062FAC01B0228D7
:104C500000D94EE76B6B1E42F6D0F8216A6BA36950
:104C60008A43DB0013436B6323689EE62B68244A68
:104C7000802613402B6000F04BFAB604070005E0D5
:104C800000F046FAC01B022800D932E72B683342F5
:104C9000F6D10F22EB6A9343226B1343EB62A16AB6
:104CA000E36A6A680B43174980240A4013436B6028
:104CB00080232A685B0413432B6000F029FA0D4D12
:104CC0000600A40405E000F023FA801B022800D9A6
:104CD0000FE72B682342F6D0ABE68022054BD202C9
:104CE00019680A431A608022196852020A431A603E
:104CF000A4E5C0460010024088130000FFFFFEFF3D
:104D0000FFFFFFFEFF7FC2FF70B588B069461C4BF6
:104D10000A00180070C870C200681033106004AA3E
:104D2000100070CB70C01B68164D03600C206B68C0
:104D3000184008280AD00C3843425841124B4042D0
:104D40001840124B9C46604408B070BD0F209C0C6C
:104D500004400C5DE96A0840115CC02280205202C8
:104D600013404002834201D0934204D00748FBF72E
:104D7000DDF96043E8E70648FBF7D8F96043E3E76D
:104D8000B489000800100240005A620200127A0042
:104D9000006CDC02F8B5CE46474601230D005A49A7
:104DA00080B50A6806001A40AA4209D20A689A43E6
:104DB0002A430A600A681340AB4201D0012054E044
:104DC00033689A0706D5F02050494A688243B06894
:104DD00002434A60DB0729D572684C4B012A55D043
:104DE000022A4ED0032A00D177E01B689B07E5D545
:104DF0000321464C63688B431343636000F088F9DA
:104E000073680700012B48D0022B56D0032B6AD0C1
:104E10000C2398463E4B994604E000F079F9C01BFC
:104E2000484538D8424663681A42F6D10121364ACD
:104E300013680B40AB421CD833685B0706D5334A76
:104E4000344953680B40F1680B435360FFF75CFF34
:104E50002E4B314A5B681B061B0FD35CD8402F4B8F
:104E600018600020FEF7AEFF00200CBC904699466B
:104E7000F8BD13688B43136013681942DCD001201E
:104E8000F3E71B689B01B3D40120EEE71B689B038B
:104E9000AED40120E9E70320E7E70B3398461C4B2B
:104EA000994604E000F034F9C01B4845F3D8424667
:104EB00063681340042BF5D1B8E70A339846144BC6
:104EC000994604E000F024F9C01B4845E3D8424667
:104ED00063681340082BF5D1A8E75B6BDB0300D5B3
:104EE00086E70120C1E709339846094B994604E05B
:104EF00000F00EF9C01B4845CDD842466368134008
:104F00000C2BF5D192E7C046002002400010024071
:104F100088130000FFF8FFFF948D00084800002070
:104F2000044B054A5B685B055B0FD35C034A106862
:104F3000D840704700100240A48D000848000020AF
:104F40000723032203600A4B10B55C6822404260CD
:104F5000F0225C6822408260E0225B68D20013404D
:104F6000C360044B1A68012313400B6010BDC04698
:104F70000010024000200240F0B5CE46474680B502
:104F8000036883B00400DA032ED580224C4B52050F
:104F9000D969002711425AD080264A4D76002B68E5
:104FA000334262D0C021464D89002A6A60680A40B7
:104FB00011D0014091420ED08022296A2E6A5202FD
:104FC00032432A622A6A404B404E0B4032402A62EA
:104FD0002B62CB0761D43A4A3B49136A0B40034327
:104FE00013622368012F51D0DA0706D50320344914
:104FF0000A6B8243A06802430A639A0706D53049C8
:1050000033480A6B0240E06802430A635A0306D53C
:105010002B4930480A6B0240206902430A639A0612
:1050200006D5102026490A6B8243606902430A6351
:1050300000205B0506D54021214A136B8B43A169F3
:105040000B43136303B00CBC90469946F0BD802619
:10505000D9691C4D1143D961DB6976001A40019270
:10506000019B2B68013733429CD12B6833432B6063
:1050700000F04EF880462B68334293D100F048F898
:105080004346C01A6428F6D90320DBE7D1691248E9
:105090000140D161DA07B0D5A8E700F039F80F4B2D
:1050A00080460226994605E000F032F84346C01AD1
:1050B0004845E9D82B6A1E42F6D060688BE7C046A7
:1050C0000010024000700040FFFCFFFFFFFFFEFFEA
:1050D000FFFFFCFFFFFFF3FFFFFFFFEF8813000060
:1050E0001021064A10B5136800200B431360FEF729
:1050F00069FEFEF78FFD002010BDC0460020024073
:10510000024A1368013313607047C046F42500203B
:10511000014B18687047C046F4250020F0B545469D
:10512000DE4657464E46E0B58846096885B00023FE
:10513000002900D181E0704A8A4693466F4A94461E
:10514000012654469E403440009472D04246516835
:1051500010220F0097430197022F00D174E00268DC
:105160005D0091460322AA404C46D24314402700DA
:1051700003240C40AC40A1463C004F463C43019FF9
:105180000460013F012F00D87BE04446C6683240EE
:10519000A668AE403243C26080225205114248D018
:1051A0005A4601245D4603260F2792691E4022437A
:1051B000AA61AA69B6002240514CB740A14690248A
:1051C0000392039A9A0892004A449568E405BD4305
:1051D000A04212D04B4FB84200D180E04A4FB842B3
:1051E00000D180E0494FB84200D174E0484FB84246
:1051F00000D17CE00527B7403D4395606246009CA6
:105200001268E543CC034ED464462A4022606268AB
:105210008C034FD464462A406260A268CC0250D40A
:1052200064462A40A260E268890251D42A4061465D
:10523000CA6052460133DA4082D105B03CBC904688
:105240009946A246AB46F0BD07250F241D40AD0090
:10525000AC40DA0892008218176AA74344462469D2
:10526000AC4025003D43156203225D00AA40D243B5
:1052700007681740B94603270F40AF404C46274305
:105280000760876844461740B946E7684C46AF4018
:105290002743012487604768B7430E0926409E4094
:1052A0003E43466071E7009C224364462260626888
:1052B0008C03AFD5009C224364466260A268CC0296
:1052C000AED5009C22436446A260E2688902ADD557
:1052D00000990A43ABE70324B44025438DE701243A
:1052E000B440254389E70227B7403D4385E70427BB
:1052F000B7403D4381E7C046001002400004014032
:10530000000001400004004800080048000C00486C
:1053100000100048002A01D0816170478162FCE7DB
:1053200043695940416170477047C046044B10B50E
:105330005A69104200D110BD5861FFF7F5FFFAE736
:105340000004014010B5041E38D021230222C254AB
:1053500000681B4A0368A1681A4063680B43E16850
:105360000B4321690B4361690B43A1690B43E1695D
:105370000B4313430360134B984216D9124B14216D
:105380009C466044FAF7D2FE104B8000E363212272
:105390000023012120640020A362E362236363638E
:1053A000A363A154013AA35410BD094B14219C4698
:1053B0006044FAF7BBFE074B8000E7E70120F3E704
:1053C0000FC0FFFF07040240F8FBFDBF00040240CE
:1053D000F8FFFDBF00000240212370B5C25C022A25
:1053E00003D01D3B8363012070BD0E240268056C51
:1053F0001168A1431160012114688C4314600C00F2
:10540000AC40C26B5460C15400222023C254436B91
:10541000002B02D098470020E6E70020E4E7C046D2
:10542000F8B504242600036CC56B9E402A68016809
:105430000F6832420DD03C420BD00B689B0602D461
:105440000B68A3430B60C36A6E60002B00D09847C3
:10545000F8BD022426009E40324214D03C4212D0B5
:105460000B689B0606D40A220B6893430B6021232A
:10547000093AC254202300226E60C254836A002B72
:10548000E6D09847E4E7082426009E403242DFD069
:105490003C42DDD00A680634A2430A6001221100B2
:1054A0009940212369608263C2540022013BC254A7
:1054B000036B002BCCD09847CAE7C046FF220323DA
:1054C00030B51400C5B22B40DB009C4089010A4076
:1054D000E4439A4000280BDB0C4B80089C46C02319
:1054E000800060449B00C1580C402243C25030BD34
:1054F0000F2307492B408C46083B9B089B006344C5
:10550000D9690C402243DA61F1E7C04600E100E0CE
:1055100000ED00E01F2318401E3B8340014A13604A
:105520007047C04600E100E00121114B11481A68A4
:105530000A431A605A6802405A601A680E480240CC
:105540001A601A680D4802401A605A680C480240F6
:105550000F205A60DA6A8243DA621A6B0948024005
:105560001A635A6B8A435A6300229A607047C04696
:10557000001002400CB8FF08FFFFF6FEFFFFFBFF24
:10558000FFFFC0FFACFEF0FF0300012208334360C1
:10559000C360036100235242826003607047C046CB
:1055A000002303617047C04643689A684B608A6075
:1055B0009A6851609960036808610133036070471D
:1055C000020030B50C680832631C01D10DE01A00EE
:1055D00053681D68A542FAD94B60996003688A60D8
:1055E000013351600861036030BD02695368F3E71D
:1055F0000369416882688A6051605968814205D0B8
:10560000002202611A68501E186070475A60F7E75E
:10561000F8B54E464546DE465746E0B5960081460B
:1056200030000D00984600F0C1FC071E00D1B4E028
:10563000542000F0BBFC041E00D1B4E03422076308
:105640002B788354002B43D06B7801328354002B8A
:105650003ED0AB7801328354002B39D0EB78013245
:105660008354002B34D02B7901328354002B2FD05C
:105670006B7901328354002B2AD0AB7901328354E9
:10568000002B25D0EB7901328354002B20D02B7ACC
:1056900001328354002B1BD06B7A01328354002BD0
:1056A00016D0AB7A01328354002B11D0EB7A013241
:1056B0008354002B0CD02B7B01328354002B07D05A
:1056C0006B7B01328354002B02D04223AA7BC2544D
:1056D00043230022E2540A9B9A46062B60D8534685
:1056E000E36263640023251DA36428009B46FFF743
:1056F00057FF20001830FFF753FF07225346D31AF5
:10570000A3615B465946301FE36438185033246167
:1057100064629043E1544246494600F063FD0B9BAE
:105720002060002B00D01C6000F07AFD434A444FFB
:105730001368013313603B68002B3AD0414B1A6861
:105740009846E36A002A04D13A68D26A9A4200D89D
:105750003C603D4E3D490A6801320A603C4A11688E
:10576000994200D213609800C018800029003018B8
:10577000FFF71AFF00F060FD43461B680125002B70
:1057800004D03B68DA6AE36A9A421BD328003CBC27
:1057900090469946A246AB46F8BD01256D42F5E715
:1057A00006239A469BE70125380000F0AFFC6D42C6
:1057B000ECE73C601368012B07D0224AE36A224ED3
:1057C0009046C7E700F020FDE0E71F4E3000FFF7EE
:1057D000DBFE30001430FFF7D7FE30002830FFF733
:1057E000D3FE30003C30FFF7CFFE30005030FFF7E3
:1057F000CBFE30006430FFF7C7FE30007830FFF793
:10580000C3FE144B99461800FFF7BEFE124B18005A
:105810009846FFF7B9FE1148FFF7B6FE1048FFF7AC
:10582000B3FE1048FFF7B0FE4A460F4B1A604246DF
:105830000E4B1A60034AE36A90468BE7D8020020B9
:1058400040020020380300204C020020E802002023
:10585000EC020020F00200200403002024030020BA
:10586000500300203C030020440200204802002096
:1058700070B5041E0CD0174D2B68834207D000F082
:10588000CFFC154B62699A4204D000F0D5FC70BD84
:1058900072B6FEE7A36A114A9342F6D0002BF4D108
:1058A000261D3000FFF7A4FE0D4AE36A11688B4203
:1058B00000D913609800C0180A4B8000C01831004E
:1058C000FFF772FE2B68E26ADB6A9A42DDD300F0D2
:1058D0009BFCDAE7400200203C0300202403002068
:1058E000EC0200204C020020F8B58020CE4647464E
:1058F000800080B500F05AFB051E00D16EE05420F8
:1059000000F054FB041E66D0574B00264363382337
:105910000563071DC6540B33C654C66246648664CD
:105920003800FFF73DFE20001830FFF739FE280051
:1059300007235022FD30FF30A36124616462E664D6
:105940009843A6544949002200F04CFC484B206083
:105950001C6000F065FC474B1A6801321A60464A29
:1059600090461268002A3DD0444EE26A3368002B0C
:1059700006D143461B68DB6A934201D843461C604C
:105980003F4D40490B6801330B603F4B1968914212
:1059900026D390008018800028183900FFF704FEF5
:1059A00000F04AFC3368002B05D043461B68DA6AD6
:1059B000E36A9A4255D372B60122344B52421A60BE
:1059C000012300223360324B1A6000F099FC0CBCBA
:1059D00090469946F8BD280000F098FB72B6FEE7A5
:1059E0001A60D6E7424614601B68012B03D0E26AB6
:1059F000234D224EC5E7224D2800FFF7C5FD2800A4
:105A00001430FFF7C1FD28002830FFF7BDFD280046
:105A10003C30FFF7B9FD28005030FFF7B5FD2800F6
:105A20006430FFF7B1FD28007830FFF7ADFD194B6A
:105A300099461800FFF7A8FD174E3000FFF7A4FDA8
:105A40001648FFF7A1FD1648FFF79EFD1548FFF722
:105A50009BFD4A46144B1A60144BE26A1E60074EC7
:105A60008FE700F0D1FBA6E749444C45DD5D000817
:105A700018030020D8020020400200203803002034
:105A80004C020020E8020020EC0200201C03002051
:105A900064030020F00200200403002024030020FF
:105AA000500300203C030020440200204802002054
:105AB000024A1368013313607047C046E4020020B5
:105AC000F0B5DE4657464E464546E0B5484B83B0F6
:105AD0001B68002B48D1474B1F6801371F60002F00
